:100000000C9434000C9451000C9451000C94510049
:100010000C9451000C9451000C9451000C9451001C
:100020000C9451000C9451000C9451000C9453000A
:100030000C9451000C9451000C9451000C945100FC
:100040000C9451000C9451000C9451000C945100EC
:100050000C9451000C9451000C9451000C945100DC
:100060000C9451000C94510011241FBECFEFD8E026
:10007000DEBFCDBF11E0A0E0B1E0EEE8F3E002C0EA
:1000800005900D92A030B107D9F714E0A0E0B1E0DF
:1000900001C01D92A936B107E1F70E94B9000C9486
:1000A000C5010C9400001F920F920FB60F921124FD
:1000B0002F933F934F935F936F937F938F939F9370
:1000C000AF93BF93EF93FF938FEF85B988B98BB947
:1000D00060E070E028EE33E040E050E095B1FB01D5
:1000E000EC5DFE4F8081892385B998B1FB01EC5C02
:1000F000FC4F8081892388B99BB1FB01ED5DFD4FE9
:10010000808189238BB98091840090918500A0E043
:10011000B0E082179307A407B507ACF36F5F7F4F7A
:100120002D5F3F4F4F4F5F4F81E060307807B1F652
:10013000FF91EF91BF91AF919F918F917F916F91BF
:100140005F914F913F912F910F900FBE0F901F9095
:10015000189520E030E040E050E005C000002F5F3F
:100160003F4F4F4F5F4F2617370748075907B0F3E8
:1001700008958FEF8AB984B987B98091810088602A
:100180008093810080E29EE49093890080938800B0
:1001900080E090E0AFEF24E231E0FC01E20FF31FDA
:1001A000A08344E353E0FC01E40FF51FA08363E266
:1001B00072E0FC01E60FF71FA0830196E1E08030BA
:1001C0009E0749F7109256011092FC031092870285
:1001D00010922203109223031092240310922503FD
:1001E00010922603109227031092280310922903DD
:1001F00010922A0310922B0310922C0310922D03BD
:1002000010922E0310922F0310923003109231039C
:10021000109232031092330330933404209333044A
:1002200030933604209335043093380420933704F8
:1002300030933A042093390430933C0420933B04D8
:1002400030933E0420933D045093400440933F0478
:100250005093420440934104509344044093430418
:1002600050934604409345045093480440934704F8
:1002700050934A044093490470934C0460934B0498
:1002800070934E0460934D047093500460934F0438
:100290007093520460935104709354046093530418
:1002A000709356046093550480E090E0FC01EE0FDB
:1002B000FF1FE050FF4F11821082019621E0803035
:1002C0009207A1F720E030E08091220390E088239C
:1002D00009F491E0909357042F5F3F4F81E0203065
:1002E000380791F71092C50089E18093C40088E136
:1002F0008093C1008EE08093C200789480916F005B
:10030000826080936F008091810082608093810081
:100310008FEF06C08091C00087FFFCCF8091C600A0
:1003200087FDF8CF8091C00087FFFCCF8091C60089
:10033000F1CF1092C50089E18093C40088E18093D9
:10034000C1008EE08093C20008959C018FEF2F3F83
:10035000380769F48091C00085FFFCCF8DE0809361
:10036000C6008091C00085FFFCCF8AE00BC02A3018
:10037000310538F48091C00085FFFCCF822F805D6D
:0E03800001C085E48093C6000895F894FFCF75
:00000001FF
