:100000000C9434000C9451000C9451000C94510049
:100010000C9451000C9451000C9451000C9451001C
:100020000C9451000C9451000C9451000C9453000A
:100030000C9451000C9451000C9451000C945100FC
:100040000C9451000C9451000C9451000C945100EC
:100050000C9451000C9451000C9451000C945100DC
:100060000C9451000C94510011241FBECFEFD8E026
:10007000DEBFCDBF11E0A0E0B1E0E2EEF3E002C0F0
:1000800005900D92A030B107D9F714E0A0E0B1E0DF
:1000900001C01D92A936B107E1F70E94B7000C9488
:1000A000EF010C9400001F920F920FB60F921124D3
:1000B0002F933F934F935F938F939F93AF93BF93F0
:1000C000EF93FF938FEF85B988B98BB924EF31E0B7
:1000D00040E050E0D901A45FB14095B1FD01EC5D75
:1000E000FE4F8081892385B998B1FD01EC5CFC4FFE
:1000F0008081892388B99BB1AD5DBD4F8C918923E7
:100100008BB98091840090918500A0E0B0E08217C7
:100110009307A407B507ACF32F5F3F4F4F4F5F4FD7
:10012000243F82E0380780E0480780E0580791F6D6
:10013000FF91EF91BF91AF919F918F915F914F91FF
:100140003F912F910F900FBE0F901F90189520E0B8
:1001500030E040E050E005C000002F5F3F4F4F4FC0
:100160005F4F2617370748075907B0F308958FEFF9
:100170008AB984B987B980918100886080938100B1
:1001800080E197E2909389008093880080E090E07E
:100190006FEF24E231E0FC01E20FF31F608344E3E0
:1001A00053E0FC01E40FF51F6083A3E2B2E0FC0121
:1001B000EA0FFB1F6083019671E08030970749F7D3
:1001C0001092240110923403109223021092220301
:1001D00010922303109224031092250310922603F9
:1001E00010922703109228031092290310922A03D9
:1001F00010922B0310922C0310922D0310922E03B9
:1002000010922F0310923003109231031092320398
:100210001092330330933404209333043093360424
:1002200020933504309338042093370430933A04F4
:100230002093390430933C0420933B0430933E04D4
:1002400020933D043093400420933F0430934204B4
:100250002093410450934404409343045093460434
:1002600040934504509348044093470450934A04F4
:100270004093490450934C0440934B0450934E04D4
:1002800040934D045093500440934F0450935204B4
:1002900040935104B0935404A0935304B093560474
:1002A000A093550480E090E0FC01EE0FFF1FE050AA
:1002B000FF4F118210820196A1E080309A07A1F7CA
:1002C00020E030E08091220390E0882309F491E05F
:1002D000909357042F5F3F4FB1E020303B0791F7D9
:1002E0001092C50089E18093C40088E18093C10029
:1002F0008EE08093C200789480916F00826080933A
:100300006F00809181008260809381004FEF06C072
:100310008091C00087FFFCCF4091C60047FDF8CF19
:100320008091C00087FFFCCF6091C600842F90E0D1
:1003300080749070880F991F68234F71415050E06E
:10034000CA01880F991FFC01E050FF4F20813181C5
:100350008D5C9B4FFC01A081B181A20FB31F2C913A
:10036000FA01E95AFB4F3081232B2C93DC01ED91EC
:10037000FC91E60FF11D80814E5D5C4FDA019C918E
:1003800089238083C5CF1092C50089E18093C40082
:1003900088E18093C1008EE08093C20008959C01A3
:1003A0008FEF2F3F380769F48091C00085FFFCCFA5
:1003B0008DE08093C6008091C00085FFFCCF8AE06D
:1003C0000BC02A30310538F48091C00085FFFCCF86
:1003D000822F805D01C085E48093C6000895F89463
:0203E000FFCF4D
:00000001FF
